{
  "contractName": "KYC",
  "abi": [
    {
      "constant": true,
      "inputs": [],
      "name": "pioneersAmount",
      "outputs": [
        {
          "name": "",
          "type": "uint256"
        }
      ],
      "payable": false,
      "stateMutability": "view",
      "type": "function",
      "signature": "0x8fdf2825"
    },
    {
      "constant": true,
      "inputs": [
        {
          "name": "",
          "type": "address"
        }
      ],
      "name": "stakers",
      "outputs": [
        {
          "name": "",
          "type": "bool"
        }
      ],
      "payable": false,
      "stateMutability": "view",
      "type": "function",
      "signature": "0x9168ae72"
    },
    {
      "constant": true,
      "inputs": [],
      "name": "customerCount",
      "outputs": [
        {
          "name": "",
          "type": "uint256"
        }
      ],
      "payable": false,
      "stateMutability": "view",
      "type": "function",
      "signature": "0x9757e8a3"
    },
    {
      "constant": true,
      "inputs": [],
      "name": "maxPioneers",
      "outputs": [
        {
          "name": "",
          "type": "uint256"
        }
      ],
      "payable": false,
      "stateMutability": "view",
      "type": "function",
      "signature": "0xb35ba3ca"
    },
    {
      "constant": true,
      "inputs": [],
      "name": "timeLine",
      "outputs": [
        {
          "name": "",
          "type": "address"
        }
      ],
      "payable": false,
      "stateMutability": "view",
      "type": "function",
      "signature": "0xf405d5c4"
    },
    {
      "constant": true,
      "inputs": [
        {
          "name": "",
          "type": "uint256"
        }
      ],
      "name": "pioneers",
      "outputs": [
        {
          "name": "name",
          "type": "string"
        },
        {
          "name": "added",
          "type": "bool"
        },
        {
          "name": "wallet",
          "type": "address"
        },
        {
          "name": "balance",
          "type": "uint256"
        }
      ],
      "payable": false,
      "stateMutability": "view",
      "type": "function",
      "signature": "0xf98775fe"
    },
    {
      "inputs": [
        {
          "name": "_timeLine",
          "type": "address"
        }
      ],
      "payable": false,
      "stateMutability": "nonpayable",
      "type": "constructor",
      "signature": "constructor"
    },
    {
      "anonymous": false,
      "inputs": [
        {
          "indexed": false,
          "name": "name",
          "type": "string"
        },
        {
          "indexed": false,
          "name": "wallet",
          "type": "address"
        }
      ],
      "name": "Invest",
      "type": "event",
      "signature": "0xd498a20e64be7ef955a5144df000aa701ed08a1fada03d0f527eeb20d8a129ed"
    },
    {
      "constant": true,
      "inputs": [
        {
          "name": "s1",
          "type": "string"
        },
        {
          "name": "s2",
          "type": "string"
        }
      ],
      "name": "compareStringsbyBytes",
      "outputs": [
        {
          "name": "",
          "type": "bool"
        }
      ],
      "payable": false,
      "stateMutability": "pure",
      "type": "function",
      "signature": "0xe9a734ff"
    },
    {
      "constant": false,
      "inputs": [
        {
          "name": "_name",
          "type": "string"
        }
      ],
      "name": "invest",
      "outputs": [],
      "payable": false,
      "stateMutability": "nonpayable",
      "type": "function",
      "signature": "0x0a8b7826"
    },
    {
      "constant": false,
      "inputs": [],
      "name": "rewardPioneers",
      "outputs": [],
      "payable": false,
      "stateMutability": "nonpayable",
      "type": "function",
      "signature": "0xc5166ec2"
    },
    {
      "constant": true,
      "inputs": [
        {
          "name": "_name",
          "type": "string"
        }
      ],
      "name": "returnPioneer",
      "outputs": [
        {
          "name": "",
          "type": "bool"
        }
      ],
      "payable": false,
      "stateMutability": "view",
      "type": "function",
      "signature": "0x4ec1ce3e"
    }
  ],
  "bytecode": "0x6080604052606460045534801561001557600080fd5b506040516020806111c78339810180604052602081101561003557600080fd5b810190808051906020019092919050505033600360006101000a81548173ffffffffffffffffffffffffffffffffffffffff021916908373ffffffffffffffffffffffffffffffffffffffff160217905550806000806101000a81548173ffffffffffffffffffffffffffffffffffffffff021916908373ffffffffffffffffffffffffffffffffffffffff160217905550506110f0806100d76000396000f3fe6080604052600436106100a4576000357c0100000000000000000000000000000000000000000000000000000000900463ffffffff1680630a8b7826146100a95780634ec1ce3e146101715780638fdf2825146102515780639168ae721461027c5780639757e8a3146102e5578063b35ba3ca14610310578063c5166ec21461033b578063e9a734ff14610352578063f405d5c4146104c9578063f98775fe14610520575b600080fd5b3480156100b557600080fd5b5061016f600480360360208110156100cc57600080fd5b81019080803590602001906401000000008111156100e957600080fd5b8201836020820111156100fb57600080fd5b8035906020019184600183028401116401000000008311171561011d57600080fd5b91908080601f016020809104026020016040519081016040528093929190818152602001838380828437600081840152601f19601f820116905080830192505050505050509192919290505050610619565b005b34801561017d57600080fd5b506102376004803603602081101561019457600080fd5b81019080803590602001906401000000008111156101b157600080fd5b8201836020820111156101c357600080fd5b803590602001918460018302840111640100000000831117156101e557600080fd5b91908080601f016020809104026020016040519081016040528093929190818152602001838380828437600081840152601f19601f8201169050808301925050505050505091929192905050506109c5565b604051808215151515815260200191505060405180910390f35b34801561025d57600080fd5b50610266610ab5565b6040518082815260200191505060405180910390f35b34801561028857600080fd5b506102cb6004803603602081101561029f57600080fd5b81019080803573ffffffffffffffffffffffffffffffffffffffff169060200190929190505050610abb565b604051808215151515815260200191505060405180910390f35b3480156102f157600080fd5b506102fa610adb565b6040518082815260200191505060405180910390f35b34801561031c57600080fd5b50610325610ae1565b6040518082815260200191505060405180910390f35b34801561034757600080fd5b50610350610ae7565b005b34801561035e57600080fd5b506104af6004803603604081101561037557600080fd5b810190808035906020019064010000000081111561039257600080fd5b8201836020820111156103a457600080fd5b803590602001918460018302840111640100000000831117156103c657600080fd5b91908080601f016020809104026020016040519081016040528093929190818152602001838380828437600081840152601f19601f8201169050808301925050505050505091929192908035906020019064010000000081111561042957600080fd5b82018360208201111561043b57600080fd5b8035906020019184600183028401116401000000008311171561045d57600080fd5b91908080601f016020809104026020016040519081016040528093929190818152602001838380828437600081840152601f19601f820116905080830192505050505050509192919290505050610de9565b604051808215151515815260200191505060405180910390f35b3480156104d557600080fd5b506104de610edc565b604051808273ffffffffffffffffffffffffffffffffffffffff1673ffffffffffffffffffffffffffffffffffffffff16815260200191505060405180910390f35b34801561052c57600080fd5b506105596004803603602081101561054357600080fd5b8101908080359060200190929190505050610f01565b6040518080602001851515151581526020018473ffffffffffffffffffffffffffffffffffffffff1673ffffffffffffffffffffffffffffffffffffffff168152602001838152602001828103825286818151815260200191508051906020019080838360005b838110156105db5780820151818401526020810190506105c0565b50505050905090810190601f1680156106085780820380516001836020036101000a031916815260200191505b509550505050505060405180910390f35b600360009054906101000a900473ffffffffffffffffffffffffffffffffffffffff1673ffffffffffffffffffffffffffffffffffffffff163373ffffffffffffffffffffffffffffffffffffffff161415151561067657600080fd5b600660003373ffffffffffffffffffffffffffffffffffffffff1673ffffffffffffffffffffffffffffffffffffffff16815260200190815260200160002060009054906101000a900460ff16151515610738576040517f08c379a00000000000000000000000000000000000000000000000000000000081526004018080602001828103825260158152602001807f50696f6e65657220616c7265616479206164646564000000000000000000000081525060200191505060405180910390fd5b600454600254111515156107b4576040517f08c379a00000000000000000000000000000000000000000000000000000000081526004018080602001828103825260208152602001807f4d6178696d756d206e756d626572206f662050696f6e6565727320616464656481525060200191505060405180910390fd5b8060016000600160025401815260200190815260200160002060000190805190602001906107e392919061101f565b506001806000600160025401815260200190815260200160002060010160006101000a81548160ff0219169083151502179055503360016000600160025401815260200190815260200160002060010160016101000a81548173ffffffffffffffffffffffffffffffffffffffff021916908373ffffffffffffffffffffffffffffffffffffffff1602179055506000600160006001600254018152602001908152602001600020600201819055506001600660003373ffffffffffffffffffffffffffffffffffffffff1673ffffffffffffffffffffffffffffffffffffffff16815260200190815260200160002060006101000a81548160ff0219169083151502179055506108f2610ff6565b7fd498a20e64be7ef955a5144df000aa701ed08a1fada03d0f527eeb20d8a129ed813360405180806020018373ffffffffffffffffffffffffffffffffffffffff1673ffffffffffffffffffffffffffffffffffffffff168152602001828103825284818151815260200191508051906020019080838360005b8381101561098757808201518184015260208101905061096c565b50505050905090810190601f1680156109b45780820380516001836020036101000a031916815260200191505b50935050505060405180910390a150565b600080600190505b600160025401811015610aae57610a9283600160008481526020019081526020016000206000018054600181600116156101000203166002900480601f016020809104026020016040519081016040528092919081815260200182805460018160011615610100020316600290048015610a885780601f10610a5d57610100808354040283529160200191610a88565b820191906000526020600020905b815481529060010190602001808311610a6b57829003601f168201915b5050505050610de9565b15610aa1576001915050610ab0565b80806001019150506109cd565b505b919050565b60055481565b60066020528060005260406000206000915054906101000a900460ff1681565b60025481565b60045481565b600360009054906101000a900473ffffffffffffffffffffffffffffffffffffffff1673ffffffffffffffffffffffffffffffffffffffff163373ffffffffffffffffffffffffffffffffffffffff16141515610b4357600080fd5b610c436000809054906101000a900473ffffffffffffffffffffffffffffffffffffffff1673ffffffffffffffffffffffffffffffffffffffff166370a08231306040518263ffffffff167c0100000000000000000000000000000000000000000000000000000000028152600401808273ffffffffffffffffffffffffffffffffffffffff1673ffffffffffffffffffffffffffffffffffffffff16815260200191505060206040518083038186803b158015610c0057600080fd5b505afa158015610c14573d6000803e3d6000fd5b505050506040513d6020811015610c2a57600080fd5b8101908080519060200190929190505050600454611009565b6005819055506000600190505b600160025401811015610de65760006001600083815260200190815260200160002060010160019054906101000a900473ffffffffffffffffffffffffffffffffffffffff16905060006001600084815260200190815260200160002060020154111515610dd8576000809054906101000a900473ffffffffffffffffffffffffffffffffffffffff1673ffffffffffffffffffffffffffffffffffffffff1663a9059cbb826005546040518363ffffffff167c0100000000000000000000000000000000000000000000000000000000028152600401808373ffffffffffffffffffffffffffffffffffffffff1673ffffffffffffffffffffffffffffffffffffffff16815260200182815260200192505050602060405180830381600087803b158015610d7e57600080fd5b505af1158015610d92573d6000803e3d6000fd5b505050506040513d6020811015610da857600080fd5b81019080805190602001909291905050505060055460016000848152602001908152602001600020600201819055505b508080600101915050610c50565b50565b6000816040516020018082805190602001908083835b602083101515610e245780518252602082019150602081019050602083039250610dff565b6001836020036101000a03801982511681845116808217855250505050505090500191505060405160208183030381529060405280519060200120836040516020018082805190602001908083835b602083101515610e985780518252602082019150602081019050602083039250610e73565b6001836020036101000a0380198251168184511680821785525050505050509050019150506040516020818303038152906040528051906020012014905092915050565b6000809054906101000a900473ffffffffffffffffffffffffffffffffffffffff1681565b6001602052806000526040600020600091509050806000018054600181600116156101000203166002900480601f016020809104026020016040519081016040528092919081815260200182805460018160011615610100020316600290048015610fad5780601f10610f8257610100808354040283529160200191610fad565b820191906000526020600020905b815481529060010190602001808311610f9057829003601f168201915b5050505050908060010160009054906101000a900460ff16908060010160019054906101000a900473ffffffffffffffffffffffffffffffffffffffff16908060020154905084565b6001600260008282540192505081905550565b6000818381151561101657fe5b04905092915050565b828054600181600116156101000203166002900490600052602060002090601f016020900481019282601f1061106057805160ff191683800117855561108e565b8280016001018555821561108e579182015b8281111561108d578251825591602001919060010190611072565b5b50905061109b919061109f565b5090565b6110c191905b808211156110bd5760008160009055506001016110a5565b5090565b9056fea165627a7a7230582017e4840d3f9c4657b8bcb9b8c5e36e8dd4e0b791391c0c9ac370fa69e17ab7aa0029",
  "source": "pragma solidity ^0.5.0;\n\n\n\nimport \"./TimeLine.sol\";\n\n\ncontract KYC{\n    struct Investors {\n        string name;\n        bool added; \n        address payable wallet;\n        uint balance;\n    }\n\n    event Invest(\n        string name,\n        address wallet\n    );\n\n    TimeLine public timeLine;\n    mapping(uint => Investors) public pioneers;\n    uint public customerCount;\n    address admin;\n    uint256 public maxPioneers = 100;\n    uint256 public pioneersAmount;\n    mapping(address => bool) public stakers;\n\n    constructor(TimeLine _timeLine) public{\n        admin = msg.sender;\n        timeLine = _timeLine;\n    }\n\n     modifier notOwner(){\n        require(msg.sender != admin);\n        _;\n    }\n\n     modifier onlyOwner(){\n        require(msg.sender == admin);\n        _;\n    }\n\n     function div(uint256 a, uint256 b) internal pure returns (uint256) {\n        return a / b;\n    }\n\n    function incrementPioneersCnt() internal{\n        customerCount += 1;\n    }\n\n    function compareStringsbyBytes(string memory s1, string memory s2) public pure returns(bool){\n        return keccak256(abi.encodePacked(s1)) == keccak256(abi.encodePacked(s2));\n    }\n\n    function invest(string memory _name) public notOwner{\n        require(!stakers[msg.sender],\"Pioneer already added\");\n        require(customerCount <= maxPioneers, \"Maximum number of Pioneers added\");\n        \n        pioneers[customerCount+1].name = _name;\n        pioneers[customerCount+1].added = true;\n        pioneers[customerCount+1].wallet = msg.sender;\n        pioneers[customerCount+1].balance = 0;\n\n        stakers[msg.sender] = true;\n        incrementPioneersCnt();\n        emit Invest(_name,msg.sender);\n    }\n\n    function rewardPioneers() public onlyOwner{\n        pioneersAmount = div(timeLine.balanceOf(address(this)) , maxPioneers);\n        for(uint i=1; i<customerCount+1; i++){\n            address addr = pioneers[i].wallet;\n            if(pioneers[i].balance <= 0){\n                timeLine.transfer(addr , pioneersAmount);\n                pioneers[i].balance = pioneersAmount;\n            }\n        }\n    }\n\n    function returnPioneer(string memory _name) public view returns(bool){\n        for(uint i=1; i<customerCount+1; i++){\n            if(compareStringsbyBytes(_name,pioneers[i].name)){\n                return true;\n            }\n        }\n    }\n    \n}",
  "sourcePath": "/Users/oyindamolaakogun/Documents/Github_projects/BlockChain Development/TimeLine_exchange/src/contracts/KYC.sol",
  "compiler": {
    "name": "solc",
    "version": "0.5.0+commit.1d4f565a.Emscripten.clang"
  },
  "schemaVersion": "3.0.2",
  "updatedAt": "2022-01-03T15:42:36.769Z",
  "devdoc": {
    "methods": {}
  },
  "userdoc": {
    "methods": {}
  }
}